{
	"contracts/libs/Encoder.sol": {
		"Encoder": {
			"abi": [
				{
					"inputs": [
						{
							"components": [
								{
									"internalType": "address",
									"name": "collectionAddr",
									"type": "address"
								},
								{
									"internalType": "uint256",
									"name": "tokenId",
									"type": "uint256"
								},
								{
									"internalType": "uint256",
									"name": "initialPrice",
									"type": "uint256"
								},
								{
									"internalType": "uint256",
									"name": "highestBid",
									"type": "uint256"
								},
								{
									"internalType": "address",
									"name": "seller",
									"type": "address"
								},
								{
									"internalType": "address",
									"name": "highestBidder",
									"type": "address"
								},
								{
									"internalType": "address",
									"name": "currency",
									"type": "address"
								},
								{
									"internalType": "uint256",
									"name": "startedAt",
									"type": "uint256"
								},
								{
									"internalType": "uint256",
									"name": "endedAt",
									"type": "uint256"
								},
								{
									"internalType": "bool",
									"name": "royaltySupport",
									"type": "bool"
								}
							],
							"internalType": "struct BasicAuction",
							"name": "auction",
							"type": "tuple"
						}
					],
					"name": "_generateAuctionHash",
					"outputs": [
						{
							"internalType": "bytes32",
							"name": "",
							"type": "bytes32"
						}
					],
					"stateMutability": "pure",
					"type": "function"
				},
				{
					"inputs": [
						{
							"components": [
								{
									"internalType": "address",
									"name": "collectionAddr",
									"type": "address"
								},
								{
									"internalType": "uint256",
									"name": "tokenId",
									"type": "uint256"
								},
								{
									"internalType": "address",
									"name": "seller",
									"type": "address"
								},
								{
									"internalType": "address",
									"name": "buyer",
									"type": "address"
								},
								{
									"internalType": "uint256",
									"name": "price",
									"type": "uint256"
								},
								{
									"internalType": "uint256",
									"name": "supply",
									"type": "uint256"
								},
								{
									"internalType": "uint256",
									"name": "expirationTime",
									"type": "uint256"
								},
								{
									"internalType": "bool",
									"name": "royaltySupport",
									"type": "bool"
								},
								{
									"internalType": "address",
									"name": "currency",
									"type": "address"
								},
								{
									"internalType": "enum AssetType",
									"name": "asset",
									"type": "uint8"
								}
							],
							"internalType": "struct BasicOrder",
							"name": "order",
							"type": "tuple"
						}
					],
					"name": "_generateOrderHash",
					"outputs": [
						{
							"internalType": "bytes32",
							"name": "",
							"type": "bytes32"
						}
					],
					"stateMutability": "pure",
					"type": "function"
				}
			],
			"devdoc": {
				"kind": "dev",
				"methods": {},
				"version": 1
			},
			"evm": {
				"assembly": "    /* \"contracts/libs/Encoder.sol\":86:954  contract Encoder {\r... */\n  mstore(0x40, 0x80)\n  callvalue\n  dup1\n  iszero\n  tag_1\n  jumpi\n  0x00\n  dup1\n  revert\ntag_1:\n  pop\n  dataSize(sub_0)\n  dup1\n  dataOffset(sub_0)\n  0x00\n  codecopy\n  0x00\n  return\nstop\n\nsub_0: assembly {\n        /* \"contracts/libs/Encoder.sol\":86:954  contract Encoder {\r... */\n      mstore(0x40, 0x80)\n      callvalue\n      dup1\n      iszero\n      tag_1\n      jumpi\n      0x00\n      dup1\n      revert\n    tag_1:\n      pop\n      jumpi(tag_2, lt(calldatasize, 0x04))\n      shr(0xe0, calldataload(0x00))\n      dup1\n      0x0ed6afd4\n      eq\n      tag_3\n      jumpi\n      dup1\n      0xc86efb76\n      eq\n      tag_4\n      jumpi\n    tag_2:\n      0x00\n      dup1\n      revert\n        /* \"contracts/libs/Encoder.sol\":543:949  function _generateOrderHash(BasicOrder calldata order) public pure returns (bytes32) {\r... */\n    tag_3:\n      tag_5\n      tag_6\n      calldatasize\n      0x04\n      tag_13\n      jump\t// in\n    tag_6:\n      tag_8\n      jump\t// in\n    tag_5:\n      mload(0x40)\n        /* \"#utility.yul\":2238:2263   */\n      swap1\n      dup2\n      mstore\n        /* \"#utility.yul\":2226:2228   */\n      0x20\n        /* \"#utility.yul\":2211:2229   */\n      add\n        /* \"contracts/libs/Encoder.sol\":543:949  function _generateOrderHash(BasicOrder calldata order) public pure returns (bytes32) {\r... */\n      mload(0x40)\n      dup1\n      swap2\n      sub\n      swap1\n      return\n        /* \"contracts/libs/Encoder.sol\":112:535  function _generateAuctionHash(BasicAuction calldata auction) public pure returns(bytes32) {\r... */\n    tag_4:\n      tag_5\n      tag_12\n      calldatasize\n      0x04\n      tag_13\n      jump\t// in\n    tag_12:\n      tag_14\n      jump\t// in\n        /* \"contracts/libs/Encoder.sol\":543:949  function _generateOrderHash(BasicOrder calldata order) public pure returns (bytes32) {\r... */\n    tag_8:\n        /* \"contracts/libs/Encoder.sol\":619:626  bytes32 */\n      0x00\n        /* \"contracts/libs/Encoder.sol\":728:748  order.collectionAddr */\n      tag_17\n      0x20\n      dup4\n      add\n        /* \"contracts/libs/Encoder.sol\":728:733  order */\n      dup4\n        /* \"contracts/libs/Encoder.sol\":728:748  order.collectionAddr */\n      tag_18\n      jump\t// in\n    tag_17:\n        /* \"contracts/libs/Encoder.sol\":771:784  order.tokenId */\n      0x20\n      dup4\n      add\n      calldataload\n        /* \"contracts/libs/Encoder.sol\":807:827  order.expirationTime */\n      0xc0\n      dup5\n      add\n      calldataload\n        /* \"contracts/libs/Encoder.sol\":850:861  order.price */\n      0x80\n      dup6\n      add\n      calldataload\n        /* \"contracts/libs/Encoder.sol\":884:896  order.seller */\n      tag_19\n      0x60\n      dup8\n      add\n      0x40\n      dup9\n      add\n      tag_18\n      jump\t// in\n    tag_19:\n        /* \"contracts/libs/Encoder.sol\":689:915  abi.encodePacked(\r... */\n      mload(0x40)\n      not(0xffffffffffffffffffffffff)\n        /* \"#utility.yul\":1868:1870   */\n      0x60\n        /* \"#utility.yul\":1864:1879   */\n      swap7\n      dup8\n      shl\n        /* \"#utility.yul\":1860:1884   */\n      dup2\n      and\n        /* \"contracts/libs/Encoder.sol\":689:915  abi.encodePacked(\r... */\n      0x20\n      dup4\n      add\n        /* \"#utility.yul\":1848:1885   */\n      mstore\n        /* \"#utility.yul\":1901:1913   */\n      0x34\n      dup3\n      add\n        /* \"#utility.yul\":1894:1922   */\n      swap6\n      swap1\n      swap6\n      mstore\n        /* \"#utility.yul\":1938:1950   */\n      0x54\n      dup2\n      add\n        /* \"#utility.yul\":1931:1959   */\n      swap4\n      swap1\n      swap4\n      mstore\n        /* \"#utility.yul\":1975:1987   */\n      0x74\n      dup4\n      add\n        /* \"#utility.yul\":1968:1996   */\n      swap2\n      swap1\n      swap2\n      mstore\n        /* \"#utility.yul\":2031:2046   */\n      swap1\n      swap3\n      shl\n        /* \"#utility.yul\":2027:2051   */\n      and\n        /* \"#utility.yul\":2012:2025   */\n      0x94\n      dup3\n      add\n        /* \"#utility.yul\":2005:2052   */\n      mstore\n        /* \"#utility.yul\":2068:2081   */\n      0xa8\n      add\n        /* \"contracts/libs/Encoder.sol\":689:915  abi.encodePacked(\r... */\n    tag_20:\n      mload(0x40)\n      0x20\n      dup2\n      dup4\n      sub\n      sub\n      dup2\n      mstore\n      swap1\n      0x40\n      mstore\n        /* \"contracts/libs/Encoder.sol\":661:930  keccak256(\r... */\n      dup1\n      mload\n      swap1\n      0x20\n      add\n      keccak256\n        /* \"contracts/libs/Encoder.sol\":639:941  return (\r... */\n      swap1\n      pop\n        /* \"contracts/libs/Encoder.sol\":543:949  function _generateOrderHash(BasicOrder calldata order) public pure returns (bytes32) {\r... */\n      swap2\n      swap1\n      pop\n      jump\t// out\n        /* \"contracts/libs/Encoder.sol\":112:535  function _generateAuctionHash(BasicAuction calldata auction) public pure returns(bytes32) {\r... */\n    tag_14:\n        /* \"contracts/libs/Encoder.sol\":193:200  bytes32 */\n      0x00\n        /* \"contracts/libs/Encoder.sol\":302:324  auction.collectionAddr */\n      tag_23\n      0x20\n      dup4\n      add\n        /* \"contracts/libs/Encoder.sol\":302:309  auction */\n      dup4\n        /* \"contracts/libs/Encoder.sol\":302:324  auction.collectionAddr */\n      tag_18\n      jump\t// in\n    tag_23:\n        /* \"contracts/libs/Encoder.sol\":347:362  auction.tokenId */\n      0x20\n      dup4\n      add\n      calldataload\n        /* \"contracts/libs/Encoder.sol\":385:405  auction.initialPrice */\n      0x40\n      dup5\n      add\n      calldataload\n        /* \"contracts/libs/Encoder.sol\":428:442  auction.seller */\n      tag_24\n      0xa0\n      dup7\n      add\n      0x80\n      dup8\n      add\n      tag_18\n      jump\t// in\n    tag_24:\n        /* \"contracts/libs/Encoder.sol\":263:501  abi.encodePacked(\r... */\n      mload(0x40)\n      not(0xffffffffffffffffffffffff)\n        /* \"#utility.yul\":1333:1335   */\n      0x60\n        /* \"#utility.yul\":1329:1344   */\n      swap6\n      dup7\n      shl\n        /* \"#utility.yul\":1325:1349   */\n      dup2\n      and\n        /* \"contracts/libs/Encoder.sol\":263:501  abi.encodePacked(\r... */\n      0x20\n      dup4\n      add\n        /* \"#utility.yul\":1313:1350   */\n      mstore\n        /* \"#utility.yul\":1366:1378   */\n      0x34\n      dup3\n      add\n        /* \"#utility.yul\":1359:1387   */\n      swap5\n      swap1\n      swap5\n      mstore\n        /* \"#utility.yul\":1403:1415   */\n      0x54\n      dup2\n      add\n        /* \"#utility.yul\":1396:1424   */\n      swap3\n      swap1\n      swap3\n      mstore\n        /* \"#utility.yul\":1458:1473   */\n      swap1\n      swap3\n      shl\n        /* \"#utility.yul\":1454:1478   */\n      and\n        /* \"#utility.yul\":1440:1452   */\n      0x74\n      dup3\n      add\n        /* \"#utility.yul\":1433:1479   */\n      mstore\n        /* \"contracts/libs/Encoder.sol\":465:482  auction.startedAt */\n      0xe0\n      dup4\n      add\n      calldataload\n        /* \"#utility.yul\":1495:1508   */\n      0x88\n      dup3\n      add\n        /* \"#utility.yul\":1488:1517   */\n      mstore\n        /* \"#utility.yul\":1533:1546   */\n      0xa8\n      add\n        /* \"contracts/libs/Encoder.sol\":263:501  abi.encodePacked(\r... */\n      tag_20\n        /* \"#utility.yul\":1253:1552   */\n      jump\n        /* \"#utility.yul\":14:183   */\n    tag_28:\n        /* \"#utility.yul\":79:84   */\n      0x00\n        /* \"#utility.yul\":124:127   */\n      0x0140\n        /* \"#utility.yul\":115:121   */\n      dup3\n        /* \"#utility.yul\":110:113   */\n      dup5\n        /* \"#utility.yul\":106:122   */\n      sub\n        /* \"#utility.yul\":102:128   */\n      slt\n        /* \"#utility.yul\":99:101   */\n      iszero\n      tag_30\n      jumpi\n        /* \"#utility.yul\":145:150   */\n      dup1\n        /* \"#utility.yul\":138:143   */\n      dup2\n        /* \"#utility.yul\":131:151   */\n      revert\n        /* \"#utility.yul\":99:101   */\n    tag_30:\n      pop\n        /* \"#utility.yul\":171:177   */\n      swap2\n        /* \"#utility.yul\":89:183   */\n      swap1\n      pop\n      jump\t// out\n        /* \"#utility.yul\":188:494   */\n    tag_18:\n        /* \"#utility.yul\":247:253   */\n      0x00\n        /* \"#utility.yul\":300:302   */\n      0x20\n        /* \"#utility.yul\":288:297   */\n      dup3\n        /* \"#utility.yul\":279:286   */\n      dup5\n        /* \"#utility.yul\":275:298   */\n      sub\n        /* \"#utility.yul\":271:303   */\n      slt\n        /* \"#utility.yul\":268:270   */\n      iszero\n      tag_32\n      jumpi\n        /* \"#utility.yul\":321:327   */\n      dup1\n        /* \"#utility.yul\":313:319   */\n      dup2\n        /* \"#utility.yul\":306:328   */\n      revert\n        /* \"#utility.yul\":268:270   */\n    tag_32:\n        /* \"#utility.yul\":352:375   */\n      dup2\n      calldataload\n      sub(shl(0xa0, 0x01), 0x01)\n        /* \"#utility.yul\":404:435   */\n      dup2\n      and\n        /* \"#utility.yul\":394:436   */\n      dup2\n      eq\n        /* \"#utility.yul\":384:386   */\n      tag_33\n      jumpi\n        /* \"#utility.yul\":455:461   */\n      dup2\n        /* \"#utility.yul\":447:453   */\n      dup3\n        /* \"#utility.yul\":440:462   */\n      revert\n        /* \"#utility.yul\":384:386   */\n    tag_33:\n        /* \"#utility.yul\":483:488   */\n      swap4\n        /* \"#utility.yul\":258:494   */\n      swap3\n      pop\n      pop\n      pop\n      jump\t// out\n        /* \"#utility.yul\":499:757   */\n    tag_13:\n        /* \"#utility.yul\":589:595   */\n      0x00\n        /* \"#utility.yul\":642:645   */\n      0x0140\n        /* \"#utility.yul\":630:639   */\n      dup3\n        /* \"#utility.yul\":621:628   */\n      dup5\n        /* \"#utility.yul\":617:640   */\n      sub\n        /* \"#utility.yul\":613:646   */\n      slt\n        /* \"#utility.yul\":610:612   */\n      iszero\n      tag_35\n      jumpi\n        /* \"#utility.yul\":664:670   */\n      dup1\n        /* \"#utility.yul\":656:662   */\n      dup2\n        /* \"#utility.yul\":649:671   */\n      revert\n        /* \"#utility.yul\":610:612   */\n    tag_35:\n        /* \"#utility.yul\":692:751   */\n      tag_33\n        /* \"#utility.yul\":743:750   */\n      dup4\n        /* \"#utility.yul\":732:741   */\n      dup4\n        /* \"#utility.yul\":692:751   */\n      tag_28\n      jump\t// in\n\n    auxdata: 0xa2646970667358221220062621cfb1e12648907dcf53ce23e793885c344842932eeadaa4a940058dacf664736f6c63430008040033\n}\n",
				"bytecode": {
					"linkReferences": {},
					"object": "608060405234801561001057600080fd5b50610209806100206000396000f3fe608060405234801561001057600080fd5b50600436106100365760003560e01c80630ed6afd41461003b578063c86efb7614610060575b600080fd5b61004e6100493660046101b7565b610073565b60405190815260200160405180910390f35b61004e61006e3660046101b7565b610100565b60006100826020830183610189565b602083013560c084013560808501356100a16060870160408801610189565b6040516bffffffffffffffffffffffff19606096871b8116602083015260348201959095526054810193909352607483019190915290921b16609482015260a8015b604051602081830303815290604052805190602001209050919050565b600061010f6020830183610189565b6020830135604084013561012960a0860160808701610189565b6040516bffffffffffffffffffffffff19606095861b811660208301526034820194909452605481019290925290921b16607482015260e0830135608882015260a8016100e3565b60006101408284031215610183578081fd5b50919050565b60006020828403121561019a578081fd5b81356001600160a01b03811681146101b0578182fd5b9392505050565b600061014082840312156101c9578081fd5b6101b0838361017156fea2646970667358221220062621cfb1e12648907dcf53ce23e793885c344842932eeadaa4a940058dacf664736f6c63430008040033",
					"opcodes": "PUSH1 0x80 PUSH1 0x40 MSTORE CALLVALUE DUP1 ISZERO PUSH2 0x10 JUMPI PUSH1 0x0 DUP1 REVERT JUMPDEST POP PUSH2 0x209 DUP1 PUSH2 0x20 PUSH1 0x0 CODECOPY PUSH1 0x0 RETURN INVALID PUSH1 0x80 PUSH1 0x40 MSTORE CALLVALUE DUP1 ISZERO PUSH2 0x10 JUMPI PUSH1 0x0 DUP1 REVERT JUMPDEST POP PUSH1 0x4 CALLDATASIZE LT PUSH2 0x36 JUMPI PUSH1 0x0 CALLDATALOAD PUSH1 0xE0 SHR DUP1 PUSH4 0xED6AFD4 EQ PUSH2 0x3B JUMPI DUP1 PUSH4 0xC86EFB76 EQ PUSH2 0x60 JUMPI JUMPDEST PUSH1 0x0 DUP1 REVERT JUMPDEST PUSH2 0x4E PUSH2 0x49 CALLDATASIZE PUSH1 0x4 PUSH2 0x1B7 JUMP JUMPDEST PUSH2 0x73 JUMP JUMPDEST PUSH1 0x40 MLOAD SWAP1 DUP2 MSTORE PUSH1 0x20 ADD PUSH1 0x40 MLOAD DUP1 SWAP2 SUB SWAP1 RETURN JUMPDEST PUSH2 0x4E PUSH2 0x6E CALLDATASIZE PUSH1 0x4 PUSH2 0x1B7 JUMP JUMPDEST PUSH2 0x100 JUMP JUMPDEST PUSH1 0x0 PUSH2 0x82 PUSH1 0x20 DUP4 ADD DUP4 PUSH2 0x189 JUMP JUMPDEST PUSH1 0x20 DUP4 ADD CALLDATALOAD PUSH1 0xC0 DUP5 ADD CALLDATALOAD PUSH1 0x80 DUP6 ADD CALLDATALOAD PUSH2 0xA1 PUSH1 0x60 DUP8 ADD PUSH1 0x40 DUP9 ADD PUSH2 0x189 JUMP JUMPDEST PUSH1 0x40 MLOAD PUSH12 0xFFFFFFFFFFFFFFFFFFFFFFFF NOT PUSH1 0x60 SWAP7 DUP8 SHL DUP2 AND PUSH1 0x20 DUP4 ADD MSTORE PUSH1 0x34 DUP3 ADD SWAP6 SWAP1 SWAP6 MSTORE PUSH1 0x54 DUP2 ADD SWAP4 SWAP1 SWAP4 MSTORE PUSH1 0x74 DUP4 ADD SWAP2 SWAP1 SWAP2 MSTORE SWAP1 SWAP3 SHL AND PUSH1 0x94 DUP3 ADD MSTORE PUSH1 0xA8 ADD JUMPDEST PUSH1 0x40 MLOAD PUSH1 0x20 DUP2 DUP4 SUB SUB DUP2 MSTORE SWAP1 PUSH1 0x40 MSTORE DUP1 MLOAD SWAP1 PUSH1 0x20 ADD KECCAK256 SWAP1 POP SWAP2 SWAP1 POP JUMP JUMPDEST PUSH1 0x0 PUSH2 0x10F PUSH1 0x20 DUP4 ADD DUP4 PUSH2 0x189 JUMP JUMPDEST PUSH1 0x20 DUP4 ADD CALLDATALOAD PUSH1 0x40 DUP5 ADD CALLDATALOAD PUSH2 0x129 PUSH1 0xA0 DUP7 ADD PUSH1 0x80 DUP8 ADD PUSH2 0x189 JUMP JUMPDEST PUSH1 0x40 MLOAD PUSH12 0xFFFFFFFFFFFFFFFFFFFFFFFF NOT PUSH1 0x60 SWAP6 DUP7 SHL DUP2 AND PUSH1 0x20 DUP4 ADD MSTORE PUSH1 0x34 DUP3 ADD SWAP5 SWAP1 SWAP5 MSTORE PUSH1 0x54 DUP2 ADD SWAP3 SWAP1 SWAP3 MSTORE SWAP1 SWAP3 SHL AND PUSH1 0x74 DUP3 ADD MSTORE PUSH1 0xE0 DUP4 ADD CALLDATALOAD PUSH1 0x88 DUP3 ADD MSTORE PUSH1 0xA8 ADD PUSH2 0xE3 JUMP JUMPDEST PUSH1 0x0 PUSH2 0x140 DUP3 DUP5 SUB SLT ISZERO PUSH2 0x183 JUMPI DUP1 DUP2 REVERT JUMPDEST POP SWAP2 SWAP1 POP JUMP JUMPDEST PUSH1 0x0 PUSH1 0x20 DUP3 DUP5 SUB SLT ISZERO PUSH2 0x19A JUMPI DUP1 DUP2 REVERT JUMPDEST DUP2 CALLDATALOAD PUSH1 0x1 PUSH1 0x1 PUSH1 0xA0 SHL SUB DUP2 AND DUP2 EQ PUSH2 0x1B0 JUMPI DUP2 DUP3 REVERT JUMPDEST SWAP4 SWAP3 POP POP POP JUMP JUMPDEST PUSH1 0x0 PUSH2 0x140 DUP3 DUP5 SUB SLT ISZERO PUSH2 0x1C9 JUMPI DUP1 DUP2 REVERT JUMPDEST PUSH2 0x1B0 DUP4 DUP4 PUSH2 0x171 JUMP INVALID LOG2 PUSH5 0x6970667358 0x22 SLT KECCAK256 MOD 0x26 0x21 0xCF 0xB1 0xE1 0x26 0x48 SWAP1 PUSH30 0xCF53CE23E793885C344842932EEADAA4A940058DACF664736F6C63430008 DIV STOP CALLER "
				},
				"gasEstimates": {
					"creation": {
						"codeDepositCost": "104200",
						"executionCost": "153",
						"totalCost": "104353"
					},
					"external": {
						"_generateAuctionHash((address,uint256,uint256,uint256,address,address,address,uint256,uint256,bool))": "infinite",
						"_generateOrderHash((address,uint256,address,address,uint256,uint256,uint256,bool,address,uint8))": "infinite"
					}
				},
				"methodIdentifiers": {
					"_generateAuctionHash((address,uint256,uint256,uint256,address,address,address,uint256,uint256,bool))": "c86efb76",
					"_generateOrderHash((address,uint256,address,address,uint256,uint256,uint256,bool,address,uint8))": "0ed6afd4"
				}
			},
			"storageLayout": {
				"storage": [],
				"types": null
			},
			"userdoc": {
				"kind": "user",
				"methods": {},
				"version": 1
			}
		}
	}
}